{
  "contractName": "ExerciceSolution",
  "abi": [
    {
      "inputs": [],
      "stateMutability": "nonpayable",
      "type": "constructor"
    },
    {
      "inputs": [
        {
          "internalType": "address",
          "name": "",
          "type": "address"
        }
      ],
      "name": "balance",
      "outputs": [
        {
          "internalType": "uint256",
          "name": "",
          "type": "uint256"
        }
      ],
      "stateMutability": "view",
      "type": "function"
    },
    {
      "inputs": [],
      "name": "claimTokensOnBehalf",
      "outputs": [],
      "stateMutability": "nonpayable",
      "type": "function"
    },
    {
      "inputs": [
        {
          "internalType": "address",
          "name": "callerAddress",
          "type": "address"
        }
      ],
      "name": "tokensInCustody",
      "outputs": [
        {
          "internalType": "uint256",
          "name": "",
          "type": "uint256"
        }
      ],
      "stateMutability": "nonpayable",
      "type": "function"
    },
    {
      "inputs": [
        {
          "internalType": "uint256",
          "name": "amountToWithdraw",
          "type": "uint256"
        }
      ],
      "name": "withdrawTokens",
      "outputs": [
        {
          "internalType": "uint256",
          "name": "",
          "type": "uint256"
        }
      ],
      "stateMutability": "nonpayable",
      "type": "function"
    },
    {
      "inputs": [
        {
          "internalType": "uint256",
          "name": "amountToWithdraw",
          "type": "uint256"
        }
      ],
      "name": "depositTokens",
      "outputs": [
        {
          "internalType": "uint256",
          "name": "",
          "type": "uint256"
        }
      ],
      "stateMutability": "nonpayable",
      "type": "function"
    },
    {
      "inputs": [],
      "name": "getERC20DepositAddress",
      "outputs": [
        {
          "internalType": "address",
          "name": "",
          "type": "address"
        }
      ],
      "stateMutability": "nonpayable",
      "type": "function"
    }
  ],
  "bytecode": "0x60806040527316f3f705825294a55d40d3d34baf9f91722d61436000806101000a81548173ffffffffffffffffffffffffffffffffffffffff021916908373ffffffffffffffffffffffffffffffffffffffff16021790555073e70ae39bdab3c3df5225e03032d31301e2e71b6b600160006101000a81548173ffffffffffffffffffffffffffffffffffffffff021916908373ffffffffffffffffffffffffffffffffffffffff16021790555073c1965dfb30573ce0351816c49eecf11ec851f4d8600260006101000a81548173ffffffffffffffffffffffffffffffffffffffff021916908373ffffffffffffffffffffffffffffffffffffffff16021790555034801561010e57600080fd5b50600160009054906101000a900473ffffffffffffffffffffffffffffffffffffffff16600360006101000a81548173ffffffffffffffffffffffffffffffffffffffff021916908373ffffffffffffffffffffffffffffffffffffffff160217905550600260009054906101000a900473ffffffffffffffffffffffffffffffffffffffff16600460006101000a81548173ffffffffffffffffffffffffffffffffffffffff021916908373ffffffffffffffffffffffffffffffffffffffff160217905550600360009054906101000a900473ffffffffffffffffffffffffffffffffffffffff1673ffffffffffffffffffffffffffffffffffffffff166348c54b9d6040518163ffffffff1660e01b8152600401602060405180830381600087803b15801561023f57600080fd5b505af1158015610253573d6000803e3d6000fd5b505050506040513d602081101561026957600080fd5b810190808051906020019092919050505050610cbf8061028a6000396000f3fe608060405234801561001057600080fd5b50600436106100625760003560e01c80630776d118146100675780630e4f7f36146100bf57806319fa44cd146100c9578063315a095d14610113578063dd49756e14610155578063e3d670d714610197575b600080fd5b6100a96004803603602081101561007d57600080fd5b81019080803573ffffffffffffffffffffffffffffffffffffffff1690602001909291905050506101ef565b6040518082815260200191505060405180910390f35b6100c7610238565b005b6100d1610331565b604051808273ffffffffffffffffffffffffffffffffffffffff1673ffffffffffffffffffffffffffffffffffffffff16815260200191505060405180910390f35b61013f6004803603602081101561012957600080fd5b810190808035906020019092919050505061056b565b6040518082815260200191505060405180910390f35b6101816004803603602081101561016b57600080fd5b81019080803590602001909291905050506107e6565b6040518082815260200191505060405180910390f35b6101d9600480360360208110156101ad57600080fd5b81019080803573ffffffffffffffffffffffffffffffffffffffff169060200190929190505050610c71565b6040518082815260200191505060405180910390f35b6000600560008373ffffffffffffffffffffffffffffffffffffffff1673ffffffffffffffffffffffffffffffffffffffff168152602001908152602001600020549050919050565b6000600360009054906101000a900473ffffffffffffffffffffffffffffffffffffffff1673ffffffffffffffffffffffffffffffffffffffff166348c54b9d6040518163ffffffff1660e01b8152600401602060405180830381600087803b1580156102a457600080fd5b505af11580156102b8573d6000803e3d6000fd5b505050506040513d60208110156102ce57600080fd5b8101908080519060200190929190505050905080600560003373ffffffffffffffffffffffffffffffffffffffff1673ffffffffffffffffffffffffffffffffffffffff1681526020019081526020016000206000828254019250508190555050565b6000600260009054906101000a900473ffffffffffffffffffffffffffffffffffffffff16600460006101000a81548173ffffffffffffffffffffffffffffffffffffffff021916908373ffffffffffffffffffffffffffffffffffffffff160217905550600460009054906101000a900473ffffffffffffffffffffffffffffffffffffffff1673ffffffffffffffffffffffffffffffffffffffff1663cf456ae73060016040518363ffffffff1660e01b8152600401808373ffffffffffffffffffffffffffffffffffffffff1673ffffffffffffffffffffffffffffffffffffffff1681526020018215151515815260200192505050600060405180830381600087803b15801561044457600080fd5b505af1158015610458573d6000803e3d6000fd5b50505050600460009054906101000a900473ffffffffffffffffffffffffffffffffffffffff1673ffffffffffffffffffffffffffffffffffffffff1663cf456ae76000809054906101000a900473ffffffffffffffffffffffffffffffffffffffff1660006040518363ffffffff1660e01b8152600401808373ffffffffffffffffffffffffffffffffffffffff1673ffffffffffffffffffffffffffffffffffffffff1681526020018215151515815260200192505050600060405180830381600087803b15801561052b57600080fd5b505af115801561053f573d6000803e3d6000fd5b50505050600260009054906101000a900473ffffffffffffffffffffffffffffffffffffffff16905090565b600081600560003373ffffffffffffffffffffffffffffffffffffffff1673ffffffffffffffffffffffffffffffffffffffff168152602001908152602001600020541015610622576040517f08c379a000000000000000000000000000000000000000000000000000000000815260040180806020018281038252601d8152602001807f4e6f7420656e6f75676820746f6b656e7320746f20776974686472617700000081525060200191505060405180910390fd5b81600560003373ffffffffffffffffffffffffffffffffffffffff1673ffffffffffffffffffffffffffffffffffffffff16815260200190815260200160002060008282540392505081905550600360009054906101000a900473ffffffffffffffffffffffffffffffffffffffff1673ffffffffffffffffffffffffffffffffffffffff1663a9059cbb33846040518363ffffffff1660e01b8152600401808373ffffffffffffffffffffffffffffffffffffffff1673ffffffffffffffffffffffffffffffffffffffff16815260200182815260200192505050602060405180830381600087803b15801561071857600080fd5b505af115801561072c573d6000803e3d6000fd5b505050506040513d602081101561074257600080fd5b810190808051906020019092919050505050600460009054906101000a900473ffffffffffffffffffffffffffffffffffffffff1673ffffffffffffffffffffffffffffffffffffffff166342966c68836040518263ffffffff1660e01b815260040180828152602001915050600060405180830381600087803b1580156107c957600080fd5b505af11580156107dd573d6000803e3d6000fd5b50505050919050565b6000600360009054906101000a900473ffffffffffffffffffffffffffffffffffffffff1673ffffffffffffffffffffffffffffffffffffffff166323b872dd3330856040518463ffffffff1660e01b8152600401808473ffffffffffffffffffffffffffffffffffffffff1673ffffffffffffffffffffffffffffffffffffffff1681526020018373ffffffffffffffffffffffffffffffffffffffff1673ffffffffffffffffffffffffffffffffffffffff1681526020018281526020019350505050602060405180830381600087803b1580156108c557600080fd5b505af11580156108d9573d6000803e3d6000fd5b505050506040513d60208110156108ef57600080fd5b81019080805190602001909291905050505081600560003373ffffffffffffffffffffffffffffffffffffffff1673ffffffffffffffffffffffffffffffffffffffff1681526020019081526020016000206000828254019250508190555081600560003073ffffffffffffffffffffffffffffffffffffffff1673ffffffffffffffffffffffffffffffffffffffff16815260200190815260200160002060008282540392505081905550600260009054906101000a900473ffffffffffffffffffffffffffffffffffffffff16600460006101000a81548173ffffffffffffffffffffffffffffffffffffffff021916908373ffffffffffffffffffffffffffffffffffffffff160217905550600460009054906101000a900473ffffffffffffffffffffffffffffffffffffffff1673ffffffffffffffffffffffffffffffffffffffff1663cf456ae73060016040518363ffffffff1660e01b8152600401808373ffffffffffffffffffffffffffffffffffffffff1673ffffffffffffffffffffffffffffffffffffffff1681526020018215151515815260200192505050600060405180830381600087803b158015610aac57600080fd5b505af1158015610ac0573d6000803e3d6000fd5b50505050600460009054906101000a900473ffffffffffffffffffffffffffffffffffffffff1673ffffffffffffffffffffffffffffffffffffffff1663cf456ae76000809054906101000a900473ffffffffffffffffffffffffffffffffffffffff1660006040518363ffffffff1660e01b8152600401808373ffffffffffffffffffffffffffffffffffffffff1673ffffffffffffffffffffffffffffffffffffffff1681526020018215151515815260200192505050600060405180830381600087803b158015610b9357600080fd5b505af1158015610ba7573d6000803e3d6000fd5b50505050600460009054906101000a900473ffffffffffffffffffffffffffffffffffffffff1673ffffffffffffffffffffffffffffffffffffffff166340c10f1933846040518363ffffffff1660e01b8152600401808373ffffffffffffffffffffffffffffffffffffffff1673ffffffffffffffffffffffffffffffffffffffff16815260200182815260200192505050600060405180830381600087803b158015610c5457600080fd5b505af1158015610c68573d6000803e3d6000fd5b50505050919050565b6005602052806000526040600020600091509050548156fea2646970667358221220702507b21f53ca44540a4ae8c811d4ab591944adfdb8da9f1de9b070c8a1377c64736f6c63430006020033",
  "source": "pragma solidity ^0.6.0;\r\nimport \"./IExerciceSolution.sol\";\r\nimport \"./ERC20Claimable.sol\";\r\nimport \"./ERC20Mintable.sol\";\r\n\r\ncontract ExerciceSolution is IExerciceSolution \r\n{\r\n\r\n\taddress Evaluator = address(0x16F3F705825294A55d40D3D34BAF9F91722d6143);\r\n\taddress ClaimableDeployed = address(0xE70AE39bDaB3c3Df5225E03032D31301E2E71B6b);\r\n\taddress MintableDeployed = address(0xc1965DFB30573ce0351816C49EEcF11Ec851f4d8);\r\n\r\n\tERC20Claimable claimableERC20;\r\n    ERC20Mintable MintableERC20;\r\n\tmapping(address => uint256) public balance;\r\n\r\n    //constructor(ERC20Claimable _claimableERC20) // Local Deployment\r\n\tconstructor() // Goerli Deployment\r\n\r\n\tpublic \r\n\t{\r\n        //claimableERC20 = _claimableERC20; // Local Deployment\r\n\t\tclaimableERC20 = ERC20Claimable(ClaimableDeployed); // Goerli Deployment\r\n\t\t\r\n\t\tMintableERC20 = ERC20Mintable(MintableDeployed);\r\n        \r\n        claimableERC20.claimTokens();\r\n\r\n\t\t// claimableERC20.transfer(address(0xde6f7801ef5a4b8b27aD750a80500da08F0221f0), 10000); // Local Evaluator's address\r\n\t}\r\n\r\n\tfunction claimTokensOnBehalf() external override\r\n\t{\r\n\t\tuint256 claimedTokens = claimableERC20.claimTokens();\r\n\t\tbalance[msg.sender] += claimedTokens;\r\n\t}\r\n\r\n\tfunction tokensInCustody(address callerAddress) external override returns (uint256)\r\n\t{\r\n\t\treturn balance[callerAddress];\r\n\t}\r\n\r\n\tfunction withdrawTokens(uint256 amountToWithdraw) external override returns (uint256)\r\n\t{\r\n\t\trequire(balance[msg.sender] >= amountToWithdraw, \"Not enough tokens to withdraw\");\r\n\t\tbalance[msg.sender] -= amountToWithdraw;\r\n\t\tclaimableERC20.transfer(msg.sender, amountToWithdraw);\r\n\r\n\t\t//Burning tokens\r\n\t\tMintableERC20.burn(amountToWithdraw);\r\n\t}\r\n\r\n\tfunction depositTokens(uint256 amountToWithdraw) external override returns (uint256)\r\n\t{\r\n\r\n        claimableERC20.transferFrom(msg.sender, address(this), amountToWithdraw);\r\n        balance[msg.sender] += amountToWithdraw;\r\n        balance[address(this)] -= amountToWithdraw;\r\n\r\n        MintableERC20 = ERC20Mintable(MintableDeployed);\r\n\r\n        MintableERC20.setMinter(address(this), true);\r\n        MintableERC20.setMinter(Evaluator,false);\r\n\r\n        MintableERC20.mint(msg.sender, amountToWithdraw);\r\n\r\n    }\r\n\r\n\tfunction getERC20DepositAddress() external override returns (address)\r\n\t{\r\n        MintableERC20 = ERC20Mintable(MintableDeployed);\r\n\r\n        MintableERC20.setMinter(address(this), true);\r\n        MintableERC20.setMinter(Evaluator,false);\r\n\r\n        return MintableDeployed;\r\n\r\n    }\r\n}",
  "sourcePath": "C:\\Users\\cleme\\OneDrive\\Documents\\Esilv - FIN\\Blockchain\\erc20-102\\contracts\\ExerciceSolution.sol",
  "compiler": {
    "name": "solc",
    "version": "0.6.2+commit.bacdbe57.Emscripten.clang"
  },
  "schemaVersion": "3.4.11",
  "updatedAt": "2023-01-22T21:36:03.115Z",
  "devdoc": {
    "methods": {}
  },
  "userdoc": {
    "methods": {}
  }
}